{"abi":[{"type":"constructor","inputs":[{"name":"priceFeed","type":"address","internalType":"address"}],"stateMutability":"nonpayable"},{"type":"fallback","stateMutability":"payable"},{"type":"receive","stateMutability":"payable"},{"type":"function","name":"MINIMUM_USD","inputs":[],"outputs":[{"name":"","type":"uint256","internalType":"uint256"}],"stateMutability":"view"},{"type":"function","name":"fund","inputs":[{"name":"message","type":"string","internalType":"string"}],"outputs":[],"stateMutability":"payable"},{"type":"function","name":"getDonor","inputs":[{"name":"index","type":"uint256","internalType":"uint256"}],"outputs":[{"name":"","type":"tuple","internalType":"struct BuyMeACoffee.Donor","components":[{"name":"donor","type":"address","internalType":"address"},{"name":"message","type":"string","internalType":"string"},{"name":"timestamp","type":"uint256","internalType":"uint256"},{"name":"amount","type":"uint256","internalType":"uint256"}]}],"stateMutability":"view"},{"type":"function","name":"getDonors","inputs":[],"outputs":[{"name":"","type":"tuple[]","internalType":"struct BuyMeACoffee.Donor[]","components":[{"name":"donor","type":"address","internalType":"address"},{"name":"message","type":"string","internalType":"string"},{"name":"timestamp","type":"uint256","internalType":"uint256"},{"name":"amount","type":"uint256","internalType":"uint256"}]}],"stateMutability":"view"},{"type":"function","name":"getNumberOfDonors","inputs":[],"outputs":[{"name":"","type":"uint256","internalType":"uint256"}],"stateMutability":"view"},{"type":"function","name":"getOwner","inputs":[],"outputs":[{"name":"","type":"address","internalType":"address"}],"stateMutability":"view"},{"type":"function","name":"withdraw","inputs":[],"outputs":[],"stateMutability":"nonpayable"},{"type":"error","name":"BuyMeACoffee__MessageTooLong","inputs":[]},{"type":"error","name":"BuyMeACoffee__NotEnoughETH","inputs":[]},{"type":"error","name":"BuyMeACoffee__NotOwner","inputs":[]},{"type":"error","name":"BuyMeACoffee__WithdrawFailed","inputs":[]},{"type":"error","name":"PriceConverter__NegativePrice","inputs":[]}],"bytecode":{"object":"0x60c060405234801561000f575f5ffd5b506040516113d23803806113d2833981810160405281019061003191906100fd565b8073ffffffffffffffffffffffffffffffffffffffff1660808173ffffffffffffffffffffffffffffffffffffffff16815250503373ffffffffffffffffffffffffffffffffffffffff1660a08173ffffffffffffffffffffffffffffffffffffffff168152505050610128565b5f5ffd5b5f73ffffffffffffffffffffffffffffffffffffffff82169050919050565b5f6100cc826100a3565b9050919050565b6100dc816100c2565b81146100e6575f5ffd5b50565b5f815190506100f7816100d3565b92915050565b5f602082840312156101125761011161009f565b5b5f61011f848285016100e9565b91505092915050565b60805160a05161127b6101575f395f818161034e015281816103d401526105d301525f6101ce015261127b5ff3fe608060405260043610610073575f3560e01c80636b69a5921161004d5780636b69a5921461012657806373451f6514610150578063893d20e81461016c57806396f300d41461019657610091565b80631da32711146100aa5780633ccfd60b146100d45780636136a906146100ea57610091565b366100915761008f60405180602001604052805f8152506101c0565b005b6100a860405180602001604052805f8152506101c0565b005b3480156100b5575f5ffd5b506100be610341565b6040516100cb919061089f565b60405180910390f35b3480156100df575f5ffd5b506100e861034c565b005b3480156100f5575f5ffd5b50610110600480360381019061010b91906108f3565b610493565b60405161011d9190610a3c565b60405180910390f35b348015610131575f5ffd5b5061013a6105c4565b604051610147919061089f565b60405180910390f35b61016a60048036038101906101659190610b88565b6101c0565b005b348015610177575f5ffd5b506101806105d0565b60405161018d9190610bde565b60405180910390f35b3480156101a1575f5ffd5b506101aa6105f7565b6040516101b79190610d12565b60405180910390f35b6729a2241af62c00006101fc7f00000000000000000000000000000000000000000000000000000000000000003461074a90919063ffffffff16565b1015610234576040517f27c60e0600000000000000000000000000000000000000000000000000000000815260040160405180910390fd5b60c881511115610270576040517f6146d8a100000000000000000000000000000000000000000000000000000000815260040160405180910390fd5b5f60405180608001604052803373ffffffffffffffffffffffffffffffffffffffff16815260200183815260200142815260200134815250908060018154018082558091505060019003905f5260205f2090600402015f909190919091505f820151815f015f6101000a81548173ffffffffffffffffffffffffffffffffffffffff021916908373ffffffffffffffffffffffffffffffffffffffff16021790555060208201518160010190816103279190610f40565b506040820151816002015560608201518160030155505050565b5f5f80549050905090565b7f000000000000000000000000000000000000000000000000000000000000000073ffffffffffffffffffffffffffffffffffffffff163373ffffffffffffffffffffffffffffffffffffffff16146103d1576040517f1022f53800000000000000000000000000000000000000000000000000000000815260040160405180910390fd5b5f7f000000000000000000000000000000000000000000000000000000000000000073ffffffffffffffffffffffffffffffffffffffff16476040516104169061103c565b5f6040518083038185875af1925050503d805f8114610450576040519150601f19603f3d011682016040523d82523d5f602084013e610455565b606091505b5050905080610490576040517ffaba0a1600000000000000000000000000000000000000000000000000000000815260040160405180910390fd5b50565b61049b61084c565b5f82815481106104ae576104ad611050565b5b905f5260205f2090600402016040518060800160405290815f82015f9054906101000a900473ffffffffffffffffffffffffffffffffffffffff1673ffffffffffffffffffffffffffffffffffffffff1673ffffffffffffffffffffffffffffffffffffffff16815260200160018201805461052990610d5f565b80601f016020809104026020016040519081016040528092919081815260200182805461055590610d5f565b80156105a05780601f10610577576101008083540402835291602001916105a0565b820191905f5260205f20905b81548152906001019060200180831161058357829003601f168201915b50505050508152602001600282015481526020016003820154815250509050919050565b6729a2241af62c000081565b5f7f0000000000000000000000000000000000000000000000000000000000000000905090565b60605f805480602002602001604051908101604052809291908181526020015f905b82821015610741578382905f5260205f2090600402016040518060800160405290815f82015f9054906101000a900473ffffffffffffffffffffffffffffffffffffffff1673ffffffffffffffffffffffffffffffffffffffff1673ffffffffffffffffffffffffffffffffffffffff16815260200160018201805461069e90610d5f565b80601f01602080910402602001604051908101604052809291908181526020018280546106ca90610d5f565b80156107155780601f106106ec57610100808354040283529160200191610715565b820191905f5260205f20905b8154815290600101906020018083116106f857829003601f168201915b505050505081526020016002820154815260200160038201548152505081526020019060010190610619565b50505050905090565b5f5f61075583610784565b90505f670de0b6b3a7640000858361076d91906110aa565b6107779190611118565b9050809250505092915050565b5f5f8273ffffffffffffffffffffffffffffffffffffffff1663feaf968c6040518163ffffffff1660e01b815260040160a060405180830381865afa1580156107cf573d5f5f3e3d5ffd5b505050506040513d601f19601f820116820180604052508101906107f391906111ce565b5050509150505f811215610833576040517f9c8fec3700000000000000000000000000000000000000000000000000000000815260040160405180910390fd5b6402540be4008161084491906110aa565b915050919050565b60405180608001604052805f73ffffffffffffffffffffffffffffffffffffffff168152602001606081526020015f81526020015f81525090565b5f819050919050565b61089981610887565b82525050565b5f6020820190506108b25f830184610890565b92915050565b5f604051905090565b5f5ffd5b5f5ffd5b6108d281610887565b81146108dc575f5ffd5b50565b5f813590506108ed816108c9565b92915050565b5f60208284031215610908576109076108c1565b5b5f610915848285016108df565b91505092915050565b5f73ffffffffffffffffffffffffffffffffffffffff82169050919050565b5f6109478261091e565b9050919050565b6109578161093d565b82525050565b5f81519050919050565b5f82825260208201905092915050565b8281835e5f83830152505050565b5f601f19601f8301169050919050565b5f61099f8261095d565b6109a98185610967565b93506109b9818560208601610977565b6109c281610985565b840191505092915050565b6109d681610887565b82525050565b5f608083015f8301516109f15f86018261094e565b5060208301518482036020860152610a098282610995565b9150506040830151610a1e60408601826109cd565b506060830151610a3160608601826109cd565b508091505092915050565b5f6020820190508181035f830152610a5481846109dc565b905092915050565b5f5ffd5b5f5ffd5b7f4e487b71000000000000000000000000000000000000000000000000000000005f52604160045260245ffd5b610a9a82610985565b810181811067ffffffffffffffff82111715610ab957610ab8610a64565b5b80604052505050565b5f610acb6108b8565b9050610ad78282610a91565b919050565b5f67ffffffffffffffff821115610af657610af5610a64565b5b610aff82610985565b9050602081019050919050565b828183375f83830152505050565b5f610b2c610b2784610adc565b610ac2565b905082815260208101848484011115610b4857610b47610a60565b5b610b53848285610b0c565b509392505050565b5f82601f830112610b6f57610b6e610a5c565b5b8135610b7f848260208601610b1a565b91505092915050565b5f60208284031215610b9d57610b9c6108c1565b5b5f82013567ffffffffffffffff811115610bba57610bb96108c5565b5b610bc684828501610b5b565b91505092915050565b610bd88161093d565b82525050565b5f602082019050610bf15f830184610bcf565b92915050565b5f81519050919050565b5f82825260208201905092915050565b5f819050602082019050919050565b5f608083015f830151610c355f86018261094e565b5060208301518482036020860152610c4d8282610995565b9150506040830151610c6260408601826109cd565b506060830151610c7560608601826109cd565b508091505092915050565b5f610c8b8383610c20565b905092915050565b5f602082019050919050565b5f610ca982610bf7565b610cb38185610c01565b935083602082028501610cc585610c11565b805f5b85811015610d005784840389528151610ce18582610c80565b9450610cec83610c93565b925060208a01995050600181019050610cc8565b50829750879550505050505092915050565b5f6020820190508181035f830152610d2a8184610c9f565b905092915050565b7f4e487b71000000000000000000000000000000000000000000000000000000005f52602260045260245ffd5b5f6002820490506001821680610d7657607f821691505b602082108103610d8957610d88610d32565b5b50919050565b5f819050815f5260205f209050919050565b5f6020601f8301049050919050565b5f82821b905092915050565b5f60088302610deb7fffffffffffffffffffffffffffffffffffffffffffffffffffffffffffffffff82610db0565b610df58683610db0565b95508019841693508086168417925050509392505050565b5f819050919050565b5f610e30610e2b610e2684610887565b610e0d565b610887565b9050919050565b5f819050919050565b610e4983610e16565b610e5d610e5582610e37565b848454610dbc565b825550505050565b5f5f905090565b610e74610e65565b610e7f818484610e40565b505050565b5f5b82811015610ea557610e9a5f828401610e6c565b600181019050610e86565b505050565b601f821115610ef85782821115610ef757610ec481610d8f565b610ecd83610da1565b610ed685610da1565b6020861015610ee3575f90505b808301610ef282840382610e84565b505050505b5b505050565b5f82821c905092915050565b5f610f185f1984600802610efd565b1980831691505092915050565b5f610f308383610f09565b9150826002028217905092915050565b610f498261095d565b67ffffffffffffffff811115610f6257610f61610a64565b5b610f6c8254610d5f565b610f77828285610eaa565b5f60209050601f831160018114610fa8575f8415610f96578287015190505b610fa08582610f25565b865550611007565b601f198416610fb686610d8f565b5f5b82811015610fdd57848901518255600182019150602085019450602081019050610fb8565b86831015610ffa5784890151610ff6601f891682610f09565b8355505b6001600288020188555050505b505050505050565b5f81905092915050565b50565b5f6110275f8361100f565b915061103282611019565b5f82019050919050565b5f6110468261101c565b9150819050919050565b7f4e487b71000000000000000000000000000000000000000000000000000000005f52603260045260245ffd5b7f4e487b71000000000000000000000000000000000000000000000000000000005f52601160045260245ffd5b5f6110b482610887565b91506110bf83610887565b92508282026110cd81610887565b915082820484148315176110e4576110e361107d565b5b5092915050565b7f4e487b71000000000000000000000000000000000000000000000000000000005f52601260045260245ffd5b5f61112282610887565b915061112d83610887565b92508261113d5761113c6110eb565b5b828204905092915050565b5f69ffffffffffffffffffff82169050919050565b61116681611148565b8114611170575f5ffd5b50565b5f815190506111818161115d565b92915050565b5f819050919050565b61119981611187565b81146111a3575f5ffd5b50565b5f815190506111b481611190565b92915050565b5f815190506111c8816108c9565b92915050565b5f5f5f5f5f60a086880312156111e7576111e66108c1565b5b5f6111f488828901611173565b9550506020611205888289016111a6565b9450506040611216888289016111ba565b9350506060611227888289016111ba565b925050608061123888828901611173565b915050929550929590935056fea2646970667358221220e0dfdd88058951cdb89e752184b52df0e92599a963b6f2046350ad6e812b1c8664736f6c63430008230033","linkReferences":{}},"methodIdentifiers":{"MINIMUM_USD()":"6b69a592","fund(string)":"73451f65","getDonor(uint256)":"6136a906","getDonors()":"96f300d4","getNumberOfDonors()":"1da32711","getOwner()":"893d20e8","withdraw()":"3ccfd60b"},"id":22}